:020000040800F2
:1000000060460020890100080322000857200008EC
:100010000122000865030008012A00080000000012
:1000200000000000000000000000000001250008A2
:100030007B04000800000000052200086525000878
:10004000A3010008A3010008A3010008A301000800
:10005000A3010008A3010008A3010008A3010008F0
:10006000A3010008A3010008A3010008A3010008E0
:100070003904000845040008A3010008A301000892
:10008000A3010008A3010008A3010008A3010008C0
:10009000A301000869030008A3010008A3010008E8
:1000A000A3010008A3010008A3010008A3010008A0
:1000B000C9250008A3010008A3010008A301000846
:1000C000A3010008A3010008A3010008A301000880
:1000D000A3010008A3010008A3010008A301000870
:1000E000A3010008A3010008A301000800F002F822
:1000F00000F03AF80AA090E8000C82448344AAF188
:100100000107DA4501D100F02FF8AFF2090EBAE885
:100110000F0013F0010F18BFFB1A43F0010318473B
:10012000504C0000704C0000103A24BF78C878C1D1
:10013000FAD8520724BF30C830C144BF04680C60ED
:10014000704700000023002400250026103A28BF35
:1001500078C1FBD8520728BF30C148BF0B60704739
:100160001FB51FBD10B510BD00F06CF81146FFF7AC
:10017000F7FF03F013FD00F08AF803B4FFF7F2FF76
:1001800003BC00F08DF8000009488047094800478B
:10019000FEE7FEE7FEE7FEE7FEE7FEE7FEE7FEE737
:1001A000FEE7FEE704480549054A064B7047000094
:1001B000C7250008ED0000086040002060460020D0
:1001C00060420020604200204FF0000200B513465C
:1001D00094469646203922BFA0E80C50A0E80C5067
:1001E000B1F12001BFF4F7AF090728BFA0E80C5018
:1001F00048BF0CC05DF804EB890028BF40F8042B11
:1002000008BF704748BF20F8022B11F0804F18BF7D
:1002100000F8012B704770477047704710B500F029
:1002200009F8006810BD10B5044600F003F804603A
:1002300010BD000000487047004000200048704793
:10024000004000207546FFF7F9FFAE4605006946FD
:10025000534620F00700854618B020B5FFF7A2FFEF
:10026000BDE820404FF000064FF000074FF00008B7
:100270004FF0000B21F00701AC46ACE8C009ACE838
:10028000C009ACE8C009ACE8C0098D46704710B59C
:100290000446AFF300802046BDE81040FFF76DBF75
:1002A00001491820ABBEFEE726000200704700009F
:1002B0002DE9FF4F8846054600241E462046274963
:1002C0000D9F04E00A5C401C224494B2C0B2A842D4
:1002D000F8D34FEAC8024FF0640BB2FBFBF2DFF831
:1002E00080A03AF81500824210D92746894607E0D7
:1002F000B37872783178384602F004F97F1CBFB2C7
:1003000019F805002044B842F2D80FE02646894685
:1003100007E0BB787A783978304602F0F3F8761C3B
:10032000B6B219F805002044B042F2D8029908EBA1
:10033000010000EB40008100B1FBFBF23AF8151020
:100340008A4206D800212AF81510032004B0BDE81F
:10035000F08F491C2AF815100120F7E7240000202F
:100360005C000020FEE70000014800F06BBA0000CE
:100370006C0000202DE9F0470446002691468A468D
:1003800030462B4F04E0395C401C31448EB2C0B281
:10039000A042F8D33546DFF89C8034E038F81410DA
:1003A000A81BA1EB0A02904208DB884206DA99F802
:1003B000023099F8012099F800101FE0A2F10F0314
:1003C000984218DB904216DA411A01EB0A0099F8BC
:1003D00002100F3000FB01F21C2192FBF1F399F89F
:1003E000012099F800C0424392FBF1F200FB0CF0AF
:1003F00090FBF1F102E000231A461946284602F06C
:1004000081F86D1CADB2385D3044A842C6D838F8CA
:1004100014103A5D914205D9002128F814100320E8
:10042000BDE8F087491C28F814100120F8E7000007
:10043000240000205C000020014800F07DBC00008A
:10044000783F0020014800F077BC0000BC3F00204E
:1004500030B590F840500124AC40C56B6C60046826
:1004600063604368102B036803D099600068C26022
:1004700030BD9A600068C16030BD704772B6FEE75B
:100480000C49CA68D207FCD10A6942F002020A612B
:100490004861086940F040000861C868C007FCD1A5
:1004A000086920F001000861086920F00200086175
:1004B00070470000002002402DE9F05F4FF0E02976
:1004C0008B46D9F810101446054621F00201C9F8F0
:1004D0001010DFF85480DFF854A098F80070DAF8B4
:1004E000006000F043FD0020014602E02954401C5A
:1004F00080B2A042FAD3002005E000BF1BF8101024
:100500002954401C80B2A042F8D300F025FD88F8A1
:100510000070CAF80060D9F8101041F00201C9F863
:100520001010BDE8F09F00004C0000205400002097
:1005300070B515460C46064600F018FD2046FFF73C
:100540009FFF0E4B186940F001001861002007E082
:10055000D968C907FCD1315C24F81010401C80B266
:10056000A842F5D3D868C007FCD1186920F0010073
:100570001861BDE8704000F0EFBC000000200240B0
:1005800090F82020012A07D0022A05D0416A41F4C0
:100590008021416201207047006842690A4342613C
:1005A00000207047F0B590F820500468A468012D31
:1005B00005D0022D03D0416A41F480214DE014F0B2
:1005C000406F01D1E50045D5C4F301640125A54084
:1005D0001D608D684FF4C0739DB1CE6835434E6881
:1005E00045EAC605066803EB0417F5514FF4C275DA
:1005F000076805EB04150E697E51097D012905D0B8
:1006000009E00E88CD6845EA4655EBE701684E598A
:1006100046F480764E511179D2F805504FF4C676E3
:1006200041EA0521056806EB0416A9511178D2F8B4
:1006300001204FF4C47541EA0221026805EB04155C
:100640005151006803EB0411425842F0010242503C
:100650000020F0BD416A41F4001141620120F0BD6B
:1006600010B590F820300268012B07D0022B05D07E
:10067000416A41F480214162012010BDD2F800029C
:1006800040F00100C2F80002087D00F01F030120C5
:100690009840D2F81C328343C2F81C32CB69B3B9FC
:1006A000D2F80C328343C2F80C328C894B6864F365
:1006B0001F434C6902EBC404C4F840320C890B6838
:1006C00064F31F434C6902EBC404C4F84432CB69A1
:1006D000012B16D1D2F80C320343C2F80C320C882D
:1006E0004B6864F31F434C6902EBC404C4F8403206
:1006F0000C89CB6864F31F434C6902EBC404C4F853
:1007000044328B69002BD2F804320FD053EA000335
:10071000C2F804320B69002BD2F8143208D003431C
:10072000C2F81432096A012904D008E08343EFE7D4
:100730008343F5E7D2F81C120143C2F81C12D2F829
:10074000000220F00100C2F80002002010BD704736
:1007500070B590F82040012C05D0022C03D0416ADE
:1007600041F4802128E0046809B32469A40720D05B
:100770004FF4D874056804EB01142D5915F00405E5
:10078000956005682D591AD0ED08556005682C59FB
:1007900004F00204D4604FF4DA74056804EB011429
:1007A0002E5906F00F06082E0CD308250DE0E4683C
:1007B000DCE7416A41F400114162012070BD6D0D1A
:1007C0001560E3E72D5905F00F05156105682D59F2
:1007D000C5F30725956105682C59240C54614FF425
:1007E000DC72046802EB0112A4581C700468A4585F
:1007F000240A5C700468A458240C9C700468A258F5
:10080000120EDA704FF4DE72046802EB0112A45883
:100810001C710468A458240A5C710468A458240C50
:100820009C710468A258120EDA71006829B101693E
:1008300041F020010161002070BDC16841F020013C
:10084000C160F8E72DE9F05F0546006800244669BD
:10085000D0F804908768D0F80CB0D0F810A0D0F889
:100860001880F10748D0F90714D001218160B8073A
:1008700003D5284600F00DFA0CE0780702D54FF4B6
:10088000006407E0380702D54FF4805402E02846A0
:1008900000F0FEF9F80516D529684FF480708860DD
:1008A000B80503D5284600F0F6F90CE0780502D526
:1008B00044F4005407E0380502D544F4804402E0D3
:1008C000284600F0E7F9F80316D529684FF4803080
:1008D0008860B80303D5284600F0DFF90CE0780300
:1008E00002D544F4004407E0380302D544F48034D0
:1008F00002E0284600F0D0F9300707D55FEACB6068
:1009000004D52968102044F40074C86070074FF0C3
:10091000080707D55FEA0B7004D52868C76028462A
:1009200000F05AF9B00706D52868C068800702D0E1
:10093000284600F052F9700607D55FEACA6004D570
:100940002968102044F480640861B00607D55FEA86
:100950000A7004D528680761284600F03FF9F006C0
:1009600006D528680069800702D0284600F038F9CB
:10097000B00308D55FEAC96005D529681020486032
:10098000284600F057F9F00307D55FEA097004D54F
:1009900028684760284600F081F9300446D55FEAB0
:1009A000497040D5F00504D55FEAC87001D044F025
:1009B0000104B00504D55FEA887001D544F0020453
:1009C000700504D55FEA487001D544F00404300591
:1009D00029D518F0700F26D008F07000402815D0E7
:1009E00006DC102809D020280AD0302816D10AE0C9
:1009F00050280ED0602811D10EE044F008040DE01C
:100A000044F010040AE044F0200407E044F04004FD
:100A100004E044F0800401E044F4807428688169B3
:100A200021F070018161296804204860002C05D004
:100A3000686A204368622846FFF789FEBDE8F09F98
:100A400070B5040003D094F8200010B104E0012038
:100A500070BD204600F082F82068016841F0010175
:100A6000016000F087FB0546052604E000F082FBEC
:100A7000401B0A2811D820684068C007F6D02068BB
:100A8000016821F00201016000F074FB05460BE0F3
:100A900000F070FB401B0A2806D9606A40F4003061
:100AA000606284F82060D2E7206840688007EFD455
:100AB000207E0128206801683DD021F0800101607E
:100AC000607E01282068016838D021F04001016073
:100AD000A07E01282068016833D021F02001016048
:100AE000E07E0128206801682ED041F010010160ED
:100AF000207F01282068016829D021F008010160C9
:100B0000607F01282068016824D021F00401016081
:100B1000D4E902010843D4E904121143084361688F
:100B2000491E08432168C86100206062012084F8E2
:100B30002000002070BD41F08001C0E741F040017D
:100B4000C5E741F02001CAE721F01001CFE741F0ED
:100B50000801D4E741F00401D9E7000010B586B0E0
:100B60000021009101910291039100681749884288
:100B70002AD11748C16941F00071C161C16901F012
:100B800000710491816941F0040181618069114C17
:100B900000F0040004904FF4006000906946204685
:100BA00000F0F8F9A01400900220019003200390B7
:100BB0006946204600F0EEF900220121152000F0E0
:100BC00045FB152000F034FB06B010BD006400406A
:100BD0000010024000080140704770477047000055
:100BE00010B5124B124A0121FFF7B2FD10480F4910
:100BF00002694439022A09D0082A06D14068A0F5C2
:100C000000722A3A01D10220886110BD4068B0F517
:100C1000957FFAD1054A0020A2F11803145C1C54F8
:100C2000401CC0B20228F9D30120EDE744000020A7
:100C30005C3F00207047000070B5044690F820002B
:100C4000012804D0606A40F40020606218E00220AD
:100C500084F820002068016821F00101016000F0A3
:100C600089FA05460EE000BF00F084FA401B0A280E
:100C700008D9606A40F400306062052084F82000E2
:100C8000012070BD20684068C007EDD1606270BD72
:100C90007047704770477047704770477047000053
:100CA00010B590F821100024022903D0042181639B
:100CB00001243DE001680A6822F00E020A60016822
:100CC0000A6822F001020A601A4A0168914201D1C1
:100CD000012121E0174A1432914201D110211BE079
:100CE000144A2832914201D1891515E0114A3C324B
:100CF000914201D189140FE00E4A5032914202D143
:100D00004FF4803108E00B4A6432914202D14FF433
:100D1000801101E04FF08071064A083A51600121CC
:100D200080F82110002180F82010416B01B1884724
:100D3000204610BD080002402DE9F05FC16B0C6831
:100D400001680B68D0F840C0042202FA0CF2494D49
:100D5000DFF824A1494E4A4FDFF828B1DFF828E137
:100D600022422CD05A072AD50A68920603D40A6870
:100D700022F004020A600168A94201D1042219E0AC
:100D8000514501D1402215E0B14202D14FF48062B9
:100D900010E0B94202D14FF480420BE0594502D134
:100DA0004FF4802206E0714502D14FF4800201E049
:100DB0004FF080622F4908394A60C16A3BE04FF02A
:100DC000020808FA0CF818EA040F4FF000094FF077
:100DD000010235D05FEA837832D50B689B0605D4D3
:100DE0000B6823F00A030B6080F821200168A942F8
:100DF00001D1022219E0514501D1202215E0B14272
:100E000002D14FF4007210E0B94202D14FF4005207
:100E10000BE0594502D14FF4003206E0714502D192
:100E20004FF4001201E04FF00072124908394A6095
:100E300080F82090816A00291AD0BDE8F05F084749
:100E4000082505FA0CF5254212D01B0710D50B68B2
:100E500023F00E030B6090F84010C36B02FA01F10F
:100E60005960826380F8212080F82090016BE2E7CE
:100E7000BDE8F09F080002401C0002403000024024
:100E800044000240580002406C00024030B528B3D4
:100E900008C8134914221944B1FBF2F18900C16357
:100EA00010498163022141771A6843F6F0718A4341
:100EB000D0E900142143D0E902452C4321430469C1
:100EC000214344692143846921431143196000216E
:100ED0004163012242770177084630BD012030BDD1
:100EE000F8FFFDBF0000024070B5044690F82000F6
:100EF000002501280CD0012084F8200094F82160FE
:100F00000020012E06D084F820000225284670BD5E
:100F1000022070BD022684F82160A0632068066864
:100F200026F0010606602046FFF792FAE06A0028E4
:100F30002068016802D041F00E0106E021F00401B2
:100F400001602068016841F00A01016020680168C1
:100F500041F001010160D9E70348016941F08001D6
:100F60000161002070470000002002400649002077
:100F70000A69120607D5054A4A60054A4A600969A6
:100F8000090600D501207047002002402301674573
:100F9000AB89EFCD2DE9F84FDFF8B8910024A9F126
:100FA000040B23460F2709F1040AABF1040EC9E034
:100FB0000125A5402A40AA427DD1674ED1F804C040
:100FC000ACEB0608B44532D014DCBCF1030F3AD0C8
:100FD00009DCBCF1000F2AD0BCF1010F1CD0BCF120
:100FE000020F31D11DE0BCF1110F17D0BCF1120F6F
:100FF0002AD119E0B8F5881F19D006DCB8F5803F72
:1010000015D0B8F5801F1FD111E0B8F5001F0ED024
:10101000B8F5041F18D10AE0CB6815E0CB681B1D9A
:1010200012E0CB6808330FE0CB680C330CE08B6820
:101030002BB1012B4FF0080303D0456104E00423DA
:1010400002E0056100E00023FF2A01D8064601E026
:1010500000F104064FEA840501D9A5F12005D6F870
:10106000008007FA05FC28EA0C0803FA05F548EAAF
:101070000508C6F800804D68ED0062D5374DAE69B1
:1010800046F00106AE61AD6924F0030605F00105E6
:101090000095334D06EB050CDCF80850A607360F1B
:1010A00007FA06F825EA0805DFF8B880404503D1BD
:1010B0004FF0000817E044E0DFF8AC80404502D173
:1010C0004FF001080FE0DFF8A480404502D14FF057
:1010D000020808E0DFF89880404502D14FF003088D
:1010E00001E04FF0040808FA06F848EA0508CCF8D1
:1010F00008804D68D9F80060ED024D4601D51643D1
:1011000000E096432E604D68DAF80060AD02554667
:1011100001D5164300E096432E604D68DBF8006071
:10112000AD035D4601D5164300E096432E604D6841
:10113000DEF80060ED03754601D5164300E09643E6
:101140002E60641C0D682A46E5407FF431AFBDE88F
:10115000F88F000008040140000011100010024048
:101160000000014000080140000C01400010014057
:101170000014014001488068704700004C000020C6
:101180000248816802781144816070474C00002059
:10119000074810B5016841F010010160032000F01C
:1011A00075F80F2000F006F800F024F8002010BDBC
:1011B0000020024070B50D4D04464FF47A71287836
:1011C000B1FBF0F00A490968B1FBF0F000F0BCFA9D
:1011D00048B9102C07D200222146501E00F036F8E4
:1011E00000206C6070BD012070BD00004C0000202C
:1011F000580000200C4808B5816941F00101816167
:10120000816901F001010091C16941F08051C16122
:10121000C06900F0805000900448416821F0E0610E
:1012200041F00071416008BD001002400000014023
:10123000002809DB00F01F020121914040098000D5
:1012400000F1E020C0F8001170470000F0B40E4B30
:101250001B680C46C3F30223C3F10705042D00D914
:101260000425191D072901D2002300E0DB1E0126F9
:1012700006FA05F1491E214099409E40761E16400F
:101280003143F0BC01F03EBC0CED00E0064900F03B
:10129000070208684FF6FF03184040EA0220034A9D
:1012A00010430860704700000CED00E00000FA05F4
:1012B0002DE9F0470F46050061D0434E306800F03D
:1012C0000700B84209D2306820F007003843306088
:1012D000306800F00700B84251D128683B4C8107C4
:1012E00012D5400703D5606840F4E060606028785C
:1012F000000703D5606840F4605060606068A968CA
:1013000020F0F000084360602878C00728D06868A3
:10131000012810D02168022810D0890700292EDA70
:10132000616821F0030101436160FFF723FF8046FC
:1013300041F288390DE021688903EFE78901EDE783
:10134000FFF718FFA0EB0801494502D90320BDE8CB
:10135000F0876068696800F00C00B0EB810FEFD196
:10136000306800F00700B8420BD9306820F0070061
:1013700038433060306800F00700B84201D00120E7
:10138000E5E72878400705D56068E96820F4E06063
:10139000084360602878000706D56068296920F452
:1013A000605040EAC100606000F018F86168084AC7
:1013B000C1F30311515CC840064908600648006843
:1013C000FFF7F8FE0020C2E70020024000100240B4
:1013D000344C000858000020500000200E4A51688C
:1013E0000E4801F00C03042B11D0082B0FD10C4830
:1013F000C1F38343C903C05C0AD55168084AC1F3ED
:101400004041921E515C054A5043B0FBF1F07047D9
:1014100004494843704700000010024000127A005F
:10142000244C000800093D002DE9F84F040070D05D
:101430002078C04DC00749D06868C0F381000128FA
:1014400007D06868C0F38100022809D16868C0032A
:1014500006D52868800339D560680028E7D035E0D4
:101460006068B0F5803F0BD010B1B0F5A02F11D05F
:10147000286820F480302860286820F4802002E06A
:10148000286840F480302860606890B1FFF772FEF1
:1014900006460AE0286840F480202860F0E700BF94
:1014A000FFF768FE801B642873D828688003F7D58F
:1014B0000CE0FFF75FFE064605E000BFFFF75AFEAF
:1014C000801B6428F0D828688003F7D420789A4ECF
:1014D00080074FF001094FF0000839D5686810F017
:1014E0000C0F07D06868C0F38100022809D1686832
:1014F000C00306D42868800714D52069012808D1C4
:1015000010E02069B0B1C6F80090FFF733FE07463F
:1015100005E00AE1FFF72EFEC01B0228C4D82868A8
:101520008007F7D52868616920F0F80040EAC1001B
:1015300028600DE0C6F80080FFF71CFE074604E0B7
:10154000FFF718FEC01B022823D828688007F7D4AD
:10155000207800072CD57948A169D9B1C0F800904E
:10156000FFF708FE074604E0FFF704FEC01B022851
:101570000FD8686A8007F7D571484FF4FA510068B0
:10158000B0FBF1F0009000BF0098411E0091FAD22C
:101590000EE080E0C0F80080FFF7ECFD074604E0B5
:1015A000FFF7E8FDC01B022875D8686A8007F7D4EA
:1015B0002078400760D5E8690027C00008D4E869B2
:1015C00040F08050E861E869012700F08050009009
:1015D0005C480168C90513D40168834641F48071F1
:1015E0000160FFF7C7FD824606E000BFFFF7C2FDBE
:1015F000A0EB0A0064284ED8DBF80000C005F5D542
:10160000E06801280AD008B1052813D0286A20F024
:1016100001002862286A20F0040002E0286A40F0F5
:1016200001002862E06841F2883B98B1FFF7A2FD13
:1016300082460BE0286A40F004002862EEE700BF13
:10164000FFF798FDA0EB0A0159455AD8286A800790
:10165000F6D50CE0FFF78EFD824605E0FFF78AFD28
:10166000A0EB0A0159454CD8286A8007F6D41FB16F
:10167000E86920F08050E861E06988B36968C1F3E7
:101680008101022944D00228C6F8608004D0FFF707
:1016900071FD044638E034E0FFF76CFD074604E0D6
:1016A000FFF768FDC01B02282BD828688001F7D4FB
:1016B000206AB0F5803F05D16868A16820F4003049
:1016C00008436860D4E908010843696821F474118B
:1016D00008436860C6F86090FFF74CFD044606E0DA
:1016E00025E000BFFFF746FD001B022809D8286847
:1016F0008001F7D51BE000BFFFF73CFD001B02286F
:1017000002D90320BDE8F88F28688001F4D40EE0E8
:101710000128F7D06868226A00F48031914204D130
:10172000616A00F47010884201D00120EAE70020CD
:10173000E8E70000001002400000424280044242FC
:10174000580000200070004010B5401EB0F1807FAE
:1017500001D3012010BD4FF0E02460610F2160171C
:1017600001F0D0F90020A06107202061002010BD09
:101770007047704710B590F83C20012A22D0012212
:1017800080F83C20CA688C6822F4407222434C687E
:1017900022F4806222430C6822F4006222430C6926
:1017A00022F4805222434C6922F400522243C96938
:1017B000002322F480420A4301684A6480F83C30E6
:1017C000002010BD022010BD70B590F83C20012A09
:1017D00026D0012480F83C40022280F83D20036896
:1017E0005A689D6822F070060A6832435A600D4BB1
:1017F00002689A4208D0B2F1804F05D00A4B9A4253
:1018000002D00A4B9A4204D1496825F0800319435B
:10181000916080F83D40002180F83C10084670BD82
:10182000022070BD002C0140000400400008004070
:1018300010B5040003D094F83D0010B107E001207A
:1018400010BD002084F83C00204600F01FF8022064
:1018500084F83D00211D206800F0BCFE012084F8C2
:10186000460084F83E0084F83F0084F8400084F885
:10187000410084F8420084F8430084F8440084F86E
:10188000450084F83D00002010BD00002DE9F84F10
:101890000646284A01682848914236D1816941F4B8
:1018A000006181618069264C00F40060009004F1C1
:1018B000080100254FF080084FF480794FF4806ACA
:1018C00081E82007A5611D481027E561C4E90007EC
:1018D0002046FFF7DBFA08B1FEF7D0FD74626662BE
:1018E000184C164804F10801143081E82007A5615E
:1018F000E561C4E900072046FFF7C8FA08B1FEF722
:10190000BDFDB4626662BDE8F88FB1F1804FFAD1D7
:10191000C16941F00101C161C069002200F001000C
:10192000009011461C20FFF791FCBDE8F84F1C20E9
:10193000FFF77EBC002C0140001002401C0002405A
:10194000783F0020BC3F002090F83D10012901D0D5
:1019500001207047022180F83D100168CA6842F0FA
:101960000102CA6000680B49884208D0B0F1804F7C
:1019700005D00949884202D00849884204D18168CB
:1019800001F00701062903D0016841F0010101605F
:1019900000207047002C0140000400400008004077
:1019A00070B5044690F83C000025012817D00126A8
:1019B00084F83C60022084F83D002068826822F0B0
:1019C000770222F47F4282600868502838D00DDC0C
:1019D00020284FD005DC90B3102811D14AE0022016
:1019E00070BD302846D040280AD13BE060282FD077
:1019F00070280DD0B0F5805F03D0B0F5005F12D035
:101A0000012584F83D60002084F83C00284670BD24
:101A1000CB68D1E90121206800F094FE206881683C
:101A200041F0770109E0CB68D1E90121206800F09D
:101A300089FE2068816841F480418160E1E719E016
:101A4000CA684968206800F031FF5021206806E02C
:101A5000CA684968206800F03AFF6021206800F0F9
:101A60007BFECEE7CA684968206800F01FFF40216E
:101A70002068F4E7226801461046F0E77047704797
:101A800070B50446006801694FF00005C943890735
:101A900015D4C168C943890711D4E91E0161012029
:101AA0002077206880698007204602D0FFF7E7FF93
:101AB00004E000F0BFF8204600F052F925772068D6
:101AC0000169C943490717D4C168C943490713D4F9
:101AD0006FF004010161022020772068806910F412
:101AE000407F204602D0FFF7CAFF04E000F0A2F8D2
:101AF000204600F035F9257720680169C9430907B8
:101B000016D4C168C943090712D46FF008010161F6
:101B1000042020772068C0698007204602D0FFF7A4
:101B2000AEFF04E000F086F8204600F019F92577B2
:101B300020680169C943C90617D4C168C943C906E9
:101B400013D46FF010010161082020772068C0696C
:101B500010F4407F204602D0FFF791FF04E000F030
:101B600069F8204600F0FCF8257720680169C94330
:101B7000C90708D1C168C943C90704D1891E0161D9
:101B8000204600F031FA20680169C943090609D4EA
:101B9000C168C943090605D46FF080010161204680
:101BA000FFF7E6FD20680169C943490609D4C16809
:101BB000C943490605D46FF040010161204600F099
:101BC00049FA20680169C94389060BD4C168C94331
:101BD000890607D46FF0200101612046BDE87040FE
:101BE000FFF7C7BD70BD000000B585B000210091B2
:101BF00001910291039100680B49884212D10B4870
:101C0000816941F0040181618069694600F0040046
:101C100004904FF44070009002200190039004481B
:101C2000FFF7B8F905B000BD002C014000100240DC
:101C300000080140704770B5044690F83C0000264B
:101C40000D4601280FD0012084F83C006AB1042A17
:101C50001DD0082A2FD00C2A3FD00126002084F85E
:101C60003C00304670BD022070BD206800F07CFD55
:101C70002068816941F0080181612068816921F053
:101C800004018161206881692A69114311E020689B
:101C900000F092FD2068816941F400618161206853
:101CA000816921F480618161206881692A6941EA42
:101CB00002218161D2E7206800F0AAFD2068C16995
:101CC00041F00801C1612068C16921F00401C161CE
:101CD0002068C1692A69114311E0206800F0C4FD41
:101CE0002068C16941F40061C1612068C16921F4C3
:101CF0008061C1612068C1692A6941EA0221C1612C
:101D0000ACE710B5040003D094F83D0010B107E033
:101D1000012010BD002084F83C00204600F01EF891
:101D2000022084F83D00211D206800F053FC0120B2
:101D300084F8460084F83E0084F83F0084F84000B0
:101D400084F8410084F8420084F8430084F8440099
:101D500084F8450084F83D00002010BD7047000065
:101D600010B5074A0168914209D1007F012806D1C8
:101D70000021044800F0D6F803490120087010BD86
:101D8000002C01409400002000000020704700005B
:101D90002DE9F04117460D0004464FF000060CD027
:101DA000042D11D0082D16D094F84100022819D026
:101DB00094F84100012818D07CE094F83E000228F5
:101DC00010D094F83E00F5E794F83F00022809D0BF
:101DD00094F83F00EEE794F84000022802D094F80F
:101DE0004000E7E70220BDE8F081002F62D0002B21
:101DF00060D04649464ADFF81CC102204DB1042D8F
:101E000018D0082D27D084F841000C2D44D001268D
:101E100079E084F83E00606A8162606A3946C26295
:101E2000606AC0F830C02268606A3432FFF75CF83C
:101E300088BB21E084F83F00A06A8162A06A39462D
:101E4000C262A06AC0F830C02268A06A3832FFF7C8
:101E50004BF800BB15E084F84000E06A8162E06A5C
:101E60003946C262E06AC0F830C02268E06A3C329B
:101E7000FFF73AF878B909E02068C16841F40071C9
:101E80001EE02068C16841F4806119E02068C168E3
:101E900041F4006114E00DE0206B8162206B394653
:101EA000C262206BC0F830C02268206B4032FFF75E
:101EB0001BF808B1012096E72068C16841F4805101
:101EC000C16001222946206800F0BAFB124920684F
:101ED000884203D1426C42F4004242642068884246
:101EE00008D0B0F1804F05D00C49884202D00C498F
:101EF000884204D1816801F00701062903D00168F6
:101F000041F00101016030466DE700005B260008EA
:101F1000B9260008F1260008002C0140000400400A
:101F20000008004070B50D0004464FF0000607D0D1
:101F3000042D0CD0082D11D00C2D16D0012645E013
:101F40002068C16821F40071C160606A13E02068F4
:101F5000C16821F48061C160A06A0CE02068C1689A
:101F600021F40061C160E06A05E02068C16821F4E5
:101F70008051C160206BFEF793FE00222946206845
:101F800000F05EFB174B41F2111120688A10984255
:101F900009D1036A0B4206D1036A134203D1436C91
:101FA00023F4004343642068036A0B4206D1016AAC
:101FB000114203D1016821F00101016001203DB10E
:101FC000042D08D0082D09D084F84100304670BD9A
:101FD00084F83E00FAE784F83F00F7E784F8400011
:101FE000F4E70000002C014010B50068B0F1804F0C
:101FF00028D11549002001F108020B5C1354401C44
:10200000C0B20228F9D310490020083901F11802A2
:102010000B5C1354401CC0B20828F9D30A4B0B497F
:10202000103B03F11802A1F57B50FEF7BBFA064BFB
:1020300006490C3BBDE8104003F11C02183104486E
:10204000FEF7B0BA10BD00002C0000202C3F00208D
:102050006C0000207047FEE710B519488AB0174998
:10206000016012210024C0E901144FF48031C0E95D
:1020700003414461047644768476C47604774477D9
:10208000FEF7DEFC08B172B6FEE701200A21CDE9B9
:10209000040140F65411CDE900414FF6FF71029161
:1020A0000890CDE906404EF2FF710E200391099091
:1020B00069460348FEF7D4FA0AB010BD0064004038
:1020C0006C00002010B596B000240F941094119469
:1020D000129413941C2168461494FEF775F820217D
:1020E00007A8FEF771F82B482949C0E900145921C7
:1020F000C0E90241046144618461FFF799FB08B1C2
:1021000072B6FEE74FF480500F900FA92148FFF7F9
:1021100047FC08B172B6FEE71E48FFF7F2FD08B1B2
:1021200072B6FEE7139413A91A481494FFF74CFBF8
:1021300008B172B6FEE76020CDE900040294039472
:10214000049405940022694612480694FFF773FD33
:1021500008B172B6FEE7042269460E48FFF76BFD30
:1021600008B172B6FEE70794089409944FF4005042
:102170000A94CDE90B4007A906480E94FFF7FAFA36
:1021800008B172B6FEE70348FFF72EFD16B010BD8A
:10219000002C01409400002010B586B000241748A0
:1021A000009401940294039404944FF080410594A8
:1021B000016041F61F41C0E9011440F2E731C0E976
:1021C00003148461FFF734FB08B172B6FEE74FF4E5
:1021D0008050009069460948FFF7E2FB08B172B6EB
:1021E000FEE7049404A905480594FFF7EDFA0028DA
:1021F00001D072B6FEE706B010BD0000DC00002082
:10220000FEE7FEE7704700002DE9F05F0446002678
:10221000174630463B4904E00A5C401C324496B203
:10222000C0B2A042F8D3354656E0DFF8DC8038F87B
:10223000140001F0BFFF354A354B01F0CFFF0022FB
:10224000344B01F019FE01F035FD81468A46B8781D
:1022500001F0B0FF4A46534601F0C0FF01F064FFB1
:10226000834638F8140001F0A5FF284A284B01F0F6
:10227000B5FF0022274B01F0FFFD01F01BFD814659
:102280008A46787801F096FF4A46534601F0A6FF49
:1022900001F04AFF824638F8140001F08BFF1B4A18
:1022A0001B4B01F09BFF00221A4B01F0E5FD01F0F2
:1022B00001FD81468846387801F07CFF4A46434656
:1022C00001F08CFF01F030FF01465B465246284684
:1022D00000F018F96D1CADB20A48005D3044A84208
:1022E000A3D8094830F81410B1F57A7F05D300213E
:1022F00020F814100320BDE8F09F491D20F81410A9
:102300000120F8E7240000205C000020F1D4C8532D
:10231000FB2109400040AF402DE9FC5F0546002746
:102320003846744904E00A5C401C3A4497B2C0B293
:10233000A842F8D33E464FF0030BDFF8BCA1894614
:1023400084E000BF3AF81500B4FBFBF2304480B2E1
:10235000B0FBF4F1804604FB1181B1FBF2F121B135
:10236000012935D002296FD182E0B4FBFBF002F0E5
:1023700081FAB8FBF4F1009004FB118002F07AFAC4
:10238000009902F081F94FF07E5102F053FB019069
:10239000B4FBFBF002F06EFAB8FBF4F1009004FB22
:1023A000118002F067FA009902F06EF9DFF84C81B3
:1023B000414602F073FA02F029FA044641460198B8
:1023C00002F06CFA02F022FA01460023224638E0BD
:1023D000B4FBFBF002F04EFAB8FBF4F10090B4FB52
:1023E000FBF004FB1181081A02F02CFA009902F0AC
:1023F0004BF94FF07E5102F01DFB0190B4FBFBF056
:1024000002F038FAB4FBFBF10090A8EB010090FB5E
:10241000F4F104FB110002F015FA009902F034F90E
:10242000DFF8D880414602F039FA02F0EFF90446AD
:102430004146019802F032FA02F0E8F902462346DA
:102440000021304600F05EF8761CB6B219F805405F
:10245000E019B0423FF676AF3AF8151019F80520AA
:10246000914242D300212AF815100320BDE8FC9FB9
:10247000B4FBFBF002F0FEF9B8FBF4F10090B4FB02
:10248000FBF004FB1181404201EB400002F0DAF95D
:10249000009902F0F9F84FF07E5102F0CBFA01906A
:1024A000B4FBFBF002F0E6F90090B4FBFBF0414214
:1024B00008EB410090FBF4F104FB110002F0C2F9BB
:1024C000009902F0E1F880460C49019802F0E6F923
:1024D00002F09CF904460949404602F0DFF902F097
:1024E00095F9014623460022ABE7491C2AF815104E
:1024F0000120BBE7240000205C00002000007F4397
:102500007047000010B5044C04F8200004EB800074
:1025100042708170C37010BD240100202DE9F0418C
:102520000E460746002528460D4904E00A5C401C7B
:102530002A4495B2C0B2B842F8D32C46884607E088
:10254000B378727831782046FFF7DCFF641CA4B2C0
:1025500018F807002844A042F2D8BDE8F081000036
:1025600024000020FEF70CBE30B58FB0282168464D
:10257000FDF72AFE14210AA8FDF726FE0121080412
:10258000CDE900100024029402250491CDE9075002
:102590004FF4E01009906846FEF746FF08B172B6A6
:1025A000FEE70F20CDE90A054FF48060CDE90C402D
:1025B00002210AA80E94FEF77BFE002801D072B615
:1025C000FEE70FB030BD70470148FFF759BA000071
:1025D000DC000020F0B50268164B174C174D4FF089
:1025E0008047984205D0B84203D0A04201D0A8420B
:1025F00003D122F070064A683243984205D0B842AF
:1026000003D0A04201D0A84203D122F44074CA688A
:1026100022434C6922F08002224302608A68C2622F
:102620000A688262984201D109690163012141610E
:10263000F0BD0000002C01400004004000080040F4
:1026400010B501F01F030121046A99408C43046214
:10265000016A9A401143016210BD10B5446A01211C
:10266000626A824205D121778069F8B984F83E1008
:102670001CE0A26A824206D1022222778069A8B9B0
:1026800084F83F1012E0E26A824206D104222277E7
:10269000806958B984F8401008E0226B824205D165
:1026A00008222277806908B984F841102046FFF794
:1026B00057FB0020207710BD10B5446A616A814243
:1026C00001D101200DE0A16A814201D1022008E080
:1026D000E16A814201D1042003E0216B814201D1F2
:1026E000082020772046FFF751FB0020207710BDFF
:1026F00010B5446A0121626A824203D1217784F8CD
:102700003E1019E0A26A824204D10220207784F8A8
:102710003F1011E0E26A824204D10420207784F85D
:10272000401009E0226B824204D10820207784F80F
:10273000411001E084F83D102046FFF79FF900208A
:10274000207710BD10B5846842EA032224F47F4448
:102750000A432243826010BD826822F070020A435D
:1027600042F007018160704730B5036A026A22F0C7
:10277000010202624268846924F073050C682C43EC
:1027800023F002058B682B430A4DA8420BD123F09E
:102790000805CB6822F440722B434D6923F00403F3
:1027A00015438A692A434260846149684163036230
:1027B00030BD0000002C014030B5026A036A23F0EE
:1027C00010030362436884690D6824F4E64444EA14
:1027D00005248D6822F0200242EA05120B4DA84222
:1027E0000ED1CD6822F0800242EA05124D6923F431
:1027F000406343EA85038D6922F0400243EA850382
:102800004360846149688163026230BD002C0140ED
:1028100030B5036A026A22F4807202624268C469B7
:1028200023F4007324F073050C682C438D6843EA8D
:1028300005230C4DA8420ED1CD6823F4006343EA72
:1028400005234D6922F4405242EA05128D6923F4B2
:10285000806342EA05124260C4614968C163036251
:1028600030BD0000002C014030B5046A026A22F439
:10287000805202624268C3690D6823F4E64343EA6A
:1028800005238D6824F4005444EA0534064DA8421B
:1028900004D14D6922F4804242EA85124260C3614C
:1028A00049680164046230BD002C014010B5036A20
:1028B000046A24F001040462846924F0F00444EA08
:1028C000021423F00A020A438461026210BD10B5AB
:1028D000036A046A24F010040462846923F0A003EC
:1028E00024F4704444EA023243EA01118261016235
:1028F00010BD00002DE9F043894604460025284616
:102900001D4904E00A5C401C2A4495B2C0B2A042B2
:10291000F8D30A5D681E104486B2184F884617E047
:1029200018F8040037F814102844801B401E884211
:1029300003DA00231A46194605E099F8023099F89F
:10294000012099F800103046FFF7DCFD761EB6B284
:10295000AE42E5D237F8140018F80410884205D3C7
:10296000002027F814000320BDE8F083401C27F85E
:1029700014000120F8E70000240000205C00002083
:102980002DE9F04304460026894630461A4F04E0FC
:10299000395C401C31448EB2C0B2A042F8D33546F7
:1029A000DFF8588013E038F81400A91B814203DADD
:1029B00000231A46194605E099F8023099F80120DB
:1029C00099F800102846FFF79DFD6D1CADB2385DEB
:1029D0003044A842E7D838F814103A5D914205D93E
:1029E000002128F814100320BDE8F083491C28F8C2
:1029F00014100120F8E70000240000205C000020F3
:102A0000FEE700002DE9F04100200146491C07299E
:102A1000FCDB1F4F00223C251E264FF4967E07F557
:102A2000AF6300BF07EB82014C7891F802C0240429
:102A3000C97844EA0C240C435FF00001C1F1170C83
:102A400024FA0CFC5FEACC7C02D023F8105001E0A1
:102A500023F81060401C491C1829EFDB521C7245FA
:102A6000E0DB00214FEA010423F81040401C491C20
:102A70002829F9DB074A83B20021A2F5C160FFF7DC
:102A800087F9054801780029FCD00470BDE8F08181
:102A9000240100209C06002000000020C1F1FF015D
:102AA000552906D201EB4103A1EB81010022FF3140
:102AB00012E0AA2908D25539C9B2A1EB810301EB72
:102AC00041020021FF3307E0AA39C9B2A1EB81021C
:102AD000002301EB4101FF32FFF714BD490050EA2A
:102AE000C12018BF04204A0D18BF40F0010040F279
:102AF000FF72B2EB515F08BF40F00200012808BF2F
:102B0000052070470907090E002804DB00F1E020CA
:102B100080F80014704700F00F0000F1E02080F80A
:102B2000141D70472DE9F74F144694B00021C4E9F5
:102B300002111599079121F00045C9498D4206DC23
:102B40001599C4E9000117B00020BDE8F08FC54910
:102B5000DFF814A3A9423CDD0799C44E0029C44FF5
:102B6000C44A1599534619DD01F042FC554506D07B
:102B7000C14AC24B01F03CFCC4E900010AE04FF03D
:102B8000D352BE4B01F034FC32463B4601F030FCE0
:102B9000C4E9000117B00120BDE8F08F01F0BCF8D6
:102BA000554506D0B44AB54B01F0B6F8C4E900016A
:102BB0000AE04FF0D352B14B01F0AEF832463B463B
:102BC00001F0AAF8C4E9000117B04FF0FF30BDE8EA
:102BD000F08FAB49A942159978DB21F0004183467B
:102BE0008846A84AA84B01F0F9FA0022A74B01F049
:102BF00093F801F099FA099001F0C5FA06460F46DC
:102C00009C4A534601F0EAFA43465A4601F0E4FB77
:102C100080468A46984A994B3046394601F0DEFA9A
:102C20002A0D01250B924246534601F0D5FB032D98
:102C3000C4E9000139D00B98C1F30A51401A05EBE1
:102C400045111139814230DA9148C346784400EB8E
:102C50000510CDF80CA00C90D0E900233046394681
:102C600001F0BCFA02460B460491069058460399BF
:102C700001F0BEFB80468A4602460B465846039941
:102C800001F0B6FB049B069A01F0B2FB83460C9858
:102C900003913946D0E90223304601F09FFA5A46A3
:102CA000039B01F0A5FB6D1CBDE707980028A2BFA0
:102CB000099817B0BDE8F08F616881F0004161604C
:102CC000099817B04042BDE8F08FFFE78446159899
:102CD000C1F31301C0F30A50A0F2F5304FEA6018B7
:102CE00000F01F06C6F12000139000200690079008
:102CF00041F4801E05206D4676B1664A08EB00015E
:102D00007A4452F8213002EB8101B3404A681399AA
:102D100022FA01F1194305E05F4908EB000279440A
:102D200051F82210A1FB0E27A1FB0C131A449A4262
:102D300034BF0123002303EB070A05EB8003D3E92B
:102D400001B70F448F4234BF0121002193448B44CB
:102D500011B1934502D903E0934501D2012100E06E
:102D60000021C3E901B7514445F82010011EA0F12C
:102D70000100C1DC0298059F00F10050800F129005
:102D80000298DDE90356800001F0FDF983462846EC
:102D90000D9101F00FFA6FF01D0201F0FCFECDE97C
:102DA0000E01304601F006FA6FF03D0201F0F3FE2D
:102DB00080468A46384601F0FDF96FF05D0201F069
:102DC000EAFE074642465346119100F0A5FFDDE9B1
:102DD0000E2300F0A1FF5A460D9B00F09DFF002539
:102DE0000E465A4628460D9B01F002FBDDE90E23F4
:102DF00001F0FEFA4246534601F0FAFA3A46119BB8
:102E000001F0EAFADFF898A0244A534601F0E6F907
:102E100007468846234A244B3146284601F0DEF90E
:102E20003A46434600F078FF074688464FF0A842EE
:102E300053463146284601F0D1F93A46434600F060
:102E40006BFF159A12F0004F04D0129A81F00041E6
:102E500052421292C4E90001129817B0BDE8F08FF7
:102E6000FB21E93F7CD90240FB21F93F7370032E1F
:102E70008A19A33B000040543163621A61B4D03D0B
:102E8000FB21394183C8C96D305FE43F0000E03F5A
:102E9000F81F0000741F0000561F0000182D445436
:102EA000FB21F93D3326A611460B113C2DE9F041DB
:102EB0004F1E00EBC7010446D1E9000115461E462E
:102EC00037F006020DD02A46334601F087F97F1EFF
:102ED00004EBC703D3E9002300F01EFF37F006021E
:102EE000F1D1022F25D0042F13D0062F18BFBDE833
:102EF000F0812A46334601F071F9D4E90A2300F043
:102F00000BFF2A46334601F069F9D4E9082300F0A3
:102F100003FF2A46334601F061F9D4E9062300F0A5
:102F2000FBFE2A46334601F059F9D4E9042300F0A8
:102F3000F3FE2A46334601F051F9D4E9022300F0AA
:102F4000EBFE2A46334601F049F9D4E90023BDE8F7
:102F5000F04100F0E1BE00002DE9F04D04468CB0D8
:102F6000904821F00047164698460D460991874241
:102F700006DA2046294601F0D7F8002800F0AE8096
:102F80008948B8421CDC09980028BCBF85F0004580
:102F900088F00048854A864B2046294601F01CFAF5
:102FA00004460D46324643468248834901F020FAE2
:102FB00022462B4600F0B0FE002604460D46B046E1
:102FC00022462B461046194601F008F98B468246E8
:102FD00002460B4601F002F90246089077480B467C
:102FE000009106217844FFF761FFCDE90310744892
:102FF00006217844009B089AFFF758FF52465B462B
:1030000001F0ECF8CDE9051052465B462046294612
:1030100001F0E4F807910090DDE90310DDE90532E5
:1030200000F07AFE079B009A01F0D8F8324643463A
:1030300000F072FE52465B4601F0D0F8324643463D
:1030400000F06AFE80460E465E4A5F4B0799009884
:1030500001F0C4F84246334600F05EFE82468B46DD
:1030600022462B4600F058FE80464F480E46B84296
:1030700014985BDC01F087F8074642463346059119
:1030800000F04AFECDE9011042463346104619468B
:1030900001F0A4F8DDE9013200F0EEFE52465B4695
:1030A00001F0A6F922462B4601F096F9012201F023
:1030B00072FD3A46059B01F08FF904460D460998CA
:1030C000022101EAA070C0F1010001F05CF80CB02F
:1030D00022462B46BDE8F04D01F080B81498401C04
:1030E000384320430BD01498012812D00CB022464C
:1030F0002B46BDE8F04D0020344900F0BDBE0CB0B9
:1031000025F000432246BDE8F04D0020304900F094
:10311000B3BE20462946FFF7E1FC042808BF00F0B3
:1031200063F820460CB02946BDE8F08D012802BFA7
:1031300040460CB0BDE8F08D00270B463A462046CD
:10314000294601F049F952465B4601F045F904462B
:103150000D464246334600201C4900F08DFE834652
:103160003A4688463346104601F038F80022184B9C
:1031700000F0D2FD06468A4622462B463846414696
:1031800001F02CF83246534600F0C6FD5A4643463D
:1031900001F024F80CB03A464346BDE8F04D00F08B
:1031A000BBBD00000000303E2894E53F182D44547C
:1031B000FB21E93F075C143326A6813C281D000053
:1031C0004A1D0000635555555555D53F0000F0BFC9
:1031D0000000F03F012201F0DEBC00221346104641
:1031E000114600F049BE0000024A0020110701F01C
:1031F000D2BC000001FDFFFF2DE9F8430546010A9E
:10320000FE4E6FEA0508C0F381004FF4967405F096
:10321000030728D00121B1EB152F01D1032873D06A
:103220000221B1EB152F01D103286ED00321B1EBA0
:10323000152F01D1032869D00421B1EB152F01D13D
:1032400003287DD00521B1EB152F01D1032878D0BB
:103250000024EA492046FFF761F9641CE4B2082C17
:10326000F7D3BDE8F88315F00C0F43D001284ED0FA
:10327000022867D00328F4D1E0490420C91CFFF7D5
:103280004DF9DE490720C91CFFF748F9A80777D098
:10329000012F76D0022F75D05FEA8870E1D1D74B2D
:1032A0002246DB1E11460096FDF702F8D34B22465C
:1032B000DB1E114601200096FCF7FAFFCF490220E1
:1032C000C91CFFF72BF9CD4B2246DB1E114603200C
:1032D0000096FCF7EDFFC94B2246DB1E1146052088
:1032E0000096FCF7E5FFC549C91C0620BDE8F84378
:1032F000FFF714B90024C1492046FFF70FF9641CF9
:10330000E4B2082CF7D3ACE77AE103E279E2A8074C
:1033100019D0012F37D0022F65D05FEA8870A0D175
:10332000B64E0025093EB54B2146DB1E22462846F7
:103330000096FCF7BDFF6D1CEDB2082DF3D390E7AE
:10334000D6E262E37CE0AD490020C91CFFF7E6F855
:10335000AA490120C91CFFF7E1F8A8490320C91CAC
:10336000FFF7DCF8A5490520C91CFFF7D7F8A349EA
:1033700002200939FFF7D2F8A0490939042057E0A3
:10338000F1E005E117E19D4B22469B1F114600200D
:103390000096FCF78DFF99490120C91CFFF7BEF884
:1033A000964902200939FFF7B9F894490320C91C4E
:1033B000FFF7B4F8914904200939FFF79BFA8F4BC6
:1033C00022469B1F114605200096FCF771FF8B4B90
:1033D00022469B1F114606200096FCF769FF87498D
:1033E0000939072082E785490020C91CFFF796F8B4
:1033F000824B22469B1F114601200096FCF758FF86
:103400007E4B22469B1F114602200096FCF750FF80
:103410007A4B22469B1F114603200096FCF748FF7B
:10342000764904200939FFF7ABFA74490520C91C15
:10343000FFF774F8714906200939FFF76FF8CEE7F6
:10344000A80717D0012F32D0022F5DD05FEA887015
:103450007FF459AF694E00250C3E684B2146DB1EB8
:10346000224628460096FCF723FF6D1CEDB2082D7E
:10347000F3D3F6E661490020C91CFFF74FF85F4916
:103480000120C91CFFF74AF85C490320C91CFFF75B
:1034900045F85A490520C91CFFF740F85749022052
:1034A0000C39FFF73BF855490C39042051E0534BD8
:1034B00022469B1F114600200096FCF7F9FE4F495B
:1034C0000120C91CFFF72AF84C4902200C39FFF7EC
:1034D00025F84A490320C91CFFF720F84749042072
:1034E0000C39FFF707FA454B22469B1F1146052072
:1034F0000096FCF7DDFE414B22469B1F114606203D
:103500000096FCF7D5FE2BE03C490020C91CFFF7D4
:1035100005F83A4B22469B1F114601200096FCF706
:10352000C7FE364B22469B1F114602200096FCF731
:10353000BFFE324B22469B1F114603200096FCF72C
:10354000B7FE2E4904200C39FFF71AFA2B49052043
:10355000C91CFEF7E3FF294906200C39FEF7DEFF00
:1035600026490C393DE725490020C91CFEF7D6FF46
:1035700022490120C91CFEF7D1FF20490220C91CA5
:10358000FEF7CCFF1D490320C91CFEF7C7FF2FE043
:103590001A4B22469B1F114600200096FCF788FE1E
:1035A00016490120C91CFEF7B9FF14490220C91CA5
:1035B000FEF7B4FF8BE211490020C91CFEF7AEFFF5
:1035C0000E4B22469B1F114601200096FCF770FE11
:1035D0000A4B22469B1F114602200096FCF768FE0C
:1035E000064B22469B1F114603200096FCF760FE07
:1035F00002490520C91CFEF791FF74E61200002065
:10360000FE4A01210420FEF7FFFDFC4A01210720AC
:10361000FEF7FAFDA80732D0012F42D0022F58D072
:103620005FEA88707FF46FAEF44B22469B1F114611
:103630000096FCF73DFEF14B22469B1F11460120F0
:103640000096FCF735FEED4A01210220FEF7DCFD75
:10365000EA4B22469B1F114603200096FCF728FEEA
:10366000E64B22469B1F114605200096FCF720FEE4
:10367000BDE8F8430121E14A0620FEF7C5BDDF4958
:103680000020FEF74BFFDD490120FEF747FFDB4A34
:1036900001210220FEF7B8FDD8490320FEF73EFFC6
:1036A00033E0D64B2246093B114600200096FCF73A
:1036B000FFFDD2490120FEF731FFD04A012102204F
:1036C000FEF7A2FD03E2224611460620FCF7F0FDBC
:1036D000C7E5CA490020FEF721FFC84B2246093B37
:1036E000114601200096FCF7E3FDC44B2246093B3E
:1036F000114602200096FCF7DBFDC04B2246093B39
:10370000114603200096FCF7D3FDBC490520FEF7C7
:1037100005FFADE70420FEF7FFFD0720FEF7FCFDE7
:10372000A8072DD0012F3BD0022F49D05FEA887027
:10373000CED1B24B22469B1F11460096FCF7B8FD36
:10374000AE4B22469B1F114601200096FCF7B0FDB0
:103750000220FEF7E1FDA94B22469B1F11460320E4
:103760000096FCF7A5FDA54B22469B1F11460520A0
:103770000096FCF79DFDBDE8F8430620FEF7CCBDA2
:103780009E490020FEF7CAFE9C490120FEF7C6FEB6
:103790000220FEF7C1FD99490320FEF7BFFE2BE092
:1037A000964B2246093B114600200096FCF780FD0F
:1037B00092490120FEF7B2FE0220FEF7ADFD86E140
:1037C0008E490020FEF7AAFE8C4B2246093B11468B
:1037D00001200096FCF76CFD884B2246093B114600
:1037E00002200096FCF764FD844B2246093B1146FB
:1037F00003200096FCF75CFD80490520FEF78EFE55
:10380000B9E7042000F096F9072000F093F9A80723
:103810002DD0012F3BD0022F49D05FEA887087D18D
:10382000764B22469B1F11460096FCF741FD734BD9
:1038300022469B1F114601200096FCF739FD02200D
:1038400000F078F96D4B22469B1F1146032000962D
:10385000FCF72EFD694B22469B1F11460520009662
:10386000FCF726FDBDE8F843062000F063B9634984
:103870000020FEF753FE61490120FEF74FFE0220B3
:1038800000F058F95D490320FEF748FE2BE05B4B42
:103890002246093B114600200096FCF709FD5749D6
:1038A0000120FEF73BFE022000F044F90FE15349EE
:1038B0000020FEF733FE514B2246093B1146012002
:1038C0000096FCF7F5FC4D4B2246093B11460220C1
:1038D0000096FCF7EDFC494B2246093B11460320BC
:1038E0000096FCF7E5FC45490520FEF717FEB9E711
:1038F0002246424B114604200096FCF7D9FC224692
:103900003E4B114607200096FCF7D2FCA8072ED0AC
:10391000012F40D0022F52D05FEA88707FF4F3ACC1
:10392000364B22469B1F11460096FCF7C1FC334BD9
:1039300022469B1F114601200096FCF7B9FC224647
:103940002E4B114602200096FCF7B2FC2B4B224670
:103950009B1F114603200096FCF7AAFC274B22462A
:103960009B1F114605200096FCF7A2FC4AE0234964
:103970000020FEF7D3FD21490120FEF7CFFD2246AE
:103980001E4B114602200096FCF792FC1B490320B7
:10399000FEF7C4FD2FE0194B2246093B11460020DB
:1039A0000096FCF785FC15490120FEF7B7FD22467D
:1039B000124B114602200096FCF77AFC87E00F4973
:1039C0000020FEF7ABFD0D4B2246093B11460120BE
:1039D0000096FCF76DFC094B2246093B114602207C
:1039E0000096FCF765FC054B2246093B1146032077
:1039F0000096FCF75DFC0149052001E01500002060
:103A0000FEF78CFD4A4B00965DE6494A01210420F1
:103A1000FCF7B0FC464A01210720FCF7ABFCA807E5
:103A200032D0012F42D0022F61D05FEA88707FF43C
:103A30006AAC3F4B22469B1F11460096FCF738FCB0
:103A40003B4B22469B1F114601200096FCF730FCA1
:103A5000374A01210220FCF78DFC354B22469B1F83
:103A6000114603200096FCF723FC314B22469B1F96
:103A7000114605200096FCF71BFCBDE8F843012128
:103A80002B4A0620FCF776BC29490020FEF746FDAC
:103A900027490120FEF742FD254A01210220FCF7BB
:103AA00069FC23490320FEF739FD3CE0204B224608
:103AB000093B114600200096FCF7FAFB1C49012047
:103AC000FEF72CFD1A4A01210220FCF753FC18498D
:103AD0000320FEF723FD164B2246093B1146052025
:103AE0000096FCF7E5FB124B0096093BEBE510490D
:103AF0000020FEF713FD0E4B2246093B1146012024
:103B00000096FCF7D5FB0A4B2246093B11460220E2
:103B10000096FCF7CDFB064B2246093B11460320DD
:103B20000096FCF7C5FB02490520FEF7F7FCA4E769
:103B3000150000202DE9F0410546002738461549BB
:103B400004E00A5C401C3A4497B2C0B2A842F8D3E1
:103B50003C46114E884608E016F815100844C1B2DC
:103B60002046FEF79BFF641CA4B218F80500C1199B
:103B7000A142F1D836F81500FF2805D9002026F813
:103B800015000320BDE8F081401C26F81500012037
:103B9000F8E70000240000205C00002008B5FDF7D5
:103BA000F7FAFEF7E1FC3E48816941F020018161AE
:103BB000816901F020010091816941F00401816176
:103BC000816901F004010091416941F00101416105
:103BD0004069002200F00100009011460C20FDF722
:103BE00035FB0C20FDF724FB002211460D20FDF7CC
:103BF0002DFB0D20FDF71CFBFEF764FAFEF72CFAF7
:103C0000FEF7CAFA2748FDF717F810212548FCF7F8
:103C1000B7FC2548022100250161042141F22A0256
:103C2000C560C0E90121183008220261C0E902150F
:103C300041F22A111D4E416031461D48FCF73CFC03
:103C400018487030FDF780FE194C243CA06901280B
:103C500002D0022818D011E0154820300188618078
:103C6000A088814209D00F4A0020103A22F8105053
:103C7000401CC0B20828F9D3A180A5616088FFF775
:103C8000BBFAFEF7BFFEE1E70948082231462030C3
:103C9000FCF74EFC082231460548FCF70DFCECE72A
:103CA000001002406C0000202C3F002002FC0108A4
:103CB0002400002010B5164B21F00042012486B0EC
:103CC0009A4203DC0022134600941CE0114B9A42F6
:103CD00008D140B94FF00100FCF7A5FAFFF77DFAD3
:103CE00006B010BD03DBFFF775FA06B010BD02AADF
:103CF000FEF718FF00F00100A4EB40000DF1080CE6
:103D000000909CE80F00FFF727F906B010BD0000F7
:103D1000FB21E93F0000F07F10B591EA030F48BF97
:103D200083F0004300F16C83841A71EB030C05D21D
:103D3000121943EB0C03001B61EB0C01DFF824E1CB
:103D40004FEA1154A4EB135C1EEA430F18BF9EEA1E
:103D5000445F73D023EA0E03DCF1200E21EA045104
:103D600043F4801332D322FA0CFE10EB0E0023FA38
:103D70000CFE41EB0E01CCF1200E03FA0EFE10EB0F
:103D80000E0051F10001B1F5801FCCF1200E32D2AE
:103D900001EB045112FA0EF2BDE8104058BF704713
:103DA000401C38BF5FEA420218BF7047002814BFAA
:103DB00020F0010041F100014FEA410313F5001F1B
:103DC00038BF7047A1F1C04100F000BB012A43EBAE
:103DD0000302ACF1200CDCF11F0E32BF4FF0000EDD
:103DE00023FA0CF310EB030041EB0451B4EB115F29
:103DF000D0D0A1EB045101F5801149085FEA3000F1
:103E000001EB04510ED350F1000038BF12FA0EFE40
:103E100008D1BDE81040C9E7401C38BF5FEA420244
:103E2000CAD1C3E7BDE810404FEA410313F5001FB4
:103E300038BF7047A1F1C04100F0C8BA9EEA445FA4
:103E400008D011EA5E0FBDE8104004BF01F0004148
:103E500000207047BDE8104070B500F069FA00BF5F
:103E600064FBBE3E0000E0FF02494FF0000000F09E
:103E700060BE00BF0000F87F2DE9C04130B4DFF81C
:103E8000A0C23CEA111418BF3CEA131400F0EC8005
:103E900081EA03051CEA111444EAD57418BF1CEA30
:103EA000131500F0C780A4EB05044FF0004545EA68
:103EB000C12145EAC32341EA505143EA525304F178
:103EC0007F74994204F500344FEAC0204FEAC222C1
:103ED00008BF904200F09C804FEA13650FF2401635
:103EE000765D4FEA134506FB05F7C7F1807706FBC1
:103EF00007F74FEAD737A7FB03687642C8F5803843
:103F0000A7FB06CE38BFA8F1010807FB08E64FF073
:103F1000000EA6FB028CE6FB03CEDCF1000CCEF11A
:103F2000004E38BFAEF1010EA6FB0C584FF0000753
:103F30004FF00005E6FB0E87A1FB08C6A0FB07CEED
:103F400016EB0E0645F10005E1FB076515F1E04EA5
:103F50007EBFA4F580345FEA46066D4116F1800706
:103F600045F100054FEA17274FEA066647EA05675D
:103F7000A6F1DE46B6F1805F4FEA15251FD9384617
:103F800024F0010C05EBC471BCF1FE6F01EB0C11C8
:103F900002D8F0BCBDE8008124425CBF01F5801E60
:103FA0009EEAC47F02D4F0BCBDE80081244238D42C
:103FB000F0BCA1F1C041BDE8004100F007BA4FEAF2
:103FC000D22242EA43524FEAD323A7FB02864FEAAA
:103FD000D02040EA415007FB03661EEA0E0F4FEA6D
:103FE000D12105FB026658BFA6EB0056B6EB005682
:103FF0004FEA520E4EEAC37E18EB0E0E56EB530EEE
:10400000BDD518EB02085E417F1C55F10005B6E7EF
:104010004FF480154FF000074FF000064FF00008F6
:10402000ADE7F0BC4FF0000001F1C04101F00041EC
:10403000BDE8008111EA0C1F0CEA131500D00CE05A
:1040400013EA0C1F00F025804FF00000F0BC81EA5D
:10405000030101F00041BDE80081F0BCBDE8004172
:1040600081EA030100F0B2B9F0BCBDE8004170B5CF
:1040700000F05EF9097EFC3E00F007B881EA03011A
:104080004FF0000001F00041704781EA030100F0A9
:104090009DB9F0BCBDE800414FF0000021497047D8
:1040A000FFFDFBF9F7F5F4F2F0EEEDEBE9E8E6E4FD
:1040B000E3E1E0DEDDDBDAD8D7D5D4D3D1D0CFCD84
:1040C000CCCBCAC8C7C6C5C4C2C1C0BFBEBDBCBBBD
:1040D000BAB9B8B7B6B5B4B3B2B1B0AFAEADACABB8
:1040E000AAA9A8A8A7A6A5A4A3A3A2A1A09F9F9E92
:1040F0009D9C9C9B9A999998979796959594939344
:10410000929191908F8F8E8E8D8C8C8B8B8A8989DA
:10411000888887878685858484838382828181805D
:104120000000FF070000F87F4FEA41034FEA5353B6
:10413000A3F58063D3F11E03C8BFD3F1210C0CDDBE
:104140004FF0004242EAC12242EA505232FA03FCE6
:104150008CEAE17CACEBE1707047102BC4BF00200F
:10416000704703F5787CBCF1FF3F04D06FF000424C
:1041700082EA2100704770B500F0DAF84992248095
:1041800000207047F2E710F0004248BF4042B0FA0A
:1041900080F310FA03F10AD0C3F11D0303F5806325
:1041A0004FEA415002EB035202EBD12170474FF02E
:1041B00000007047B0FA80F310FA03F10AD0C3F19F
:1041C0001D0303F580634FEA41504FEA035202EBAF
:1041D000D12170474FF0000070470000DFF848C160
:1041E00070B51CEA111E1EBF1CEA13159EEA0C0FC7
:1041F00095EA0C0F00F06F8081EA030423EA4C1368
:104200004EEAD47E21EA4C1141F4801143F480132C
:10421000AE44A1FB024CA0FB0365AEF17F7E3619D4
:1042200055EB0C05A1FB034C4CF10003A0FB021C59
:1042300016EB0C06654153F10003094218BF46F026
:10424000010613F4007F0BD14FEA03314FEA05302A
:10425000340341EA155140EA16506FF003020AE0B8
:104260004FEAC3214FEAC520F40241EA555140EA22
:1042700056506FF0020202EB2E4201EB025585EA26
:10428000CE710AD05FEA440C18BF24F0004450F10C
:10429000000041F1000120EAD47040F2FE7C62454A
:1042A00000D270BDA84214BF4FF080444FF040448C
:1042B000002E08BF0024BEF1806FA8BFA1F1C0414D
:1042C000BDE8704080F282804FF0000001F1C041F3
:1042D00001F0004170479EEA0C0F0CEA131518BF5D
:1042E00095EA0C0F06D04FF0000081EA030E0EF0A5
:1042F000004170BD00F01CF88900013E00F007B8D5
:1043000000F009B84FEA430C5FEA5C5C08D081EA30
:10431000030100F05BB84FEA410C5FEA5C5CF6D148
:104320004FF00000014970470000FF070000F87FD0
:104330000EF1020E2EF0030E5EF8046B364205D429
:10434000012A43EB030515F5001F12D8012841EBA4
:10435000010C1CF5001F0CD80ED14FEAD17C15F5CD
:10436000001F0CEB4C0C0CF1020C08BF4CEBD37C87
:1043700004E04FF0080C01E04FEAD37C0CEB4C0555
:1043800026FA05F606F00706B6F1040C06D20EEB87
:10439000860CBDE870404CF0010C6047DFE80CF083
:1043A000090B02024FF000414FF00000A1F500217F
:1043B00070BD19461046012851EB010418BFD4F511
:1043C000001484BF002001F0004170BD0808A0F572
:1043D00000114FEA3101704791EA030F10B581F0E7
:1043E00000413FF5A1AC83F0004300F009B80000A4
:1043F00010B591EA030F48BF83F000433FF594AC3A
:10440000841A71EB030C07D212198CF0004C43EBA9
:104410000C03001B61EB0C01DFF8A4E14FEA11541F
:10442000A4EB135C1EEA430F18BF9EEA445F00F042
:10443000B08023EA6E03524221EA0451C3EB6E03BB
:1044400038BF5B1EDCF1200E25D322FA0CFE10EBE8
:104450000E0043FA0CFE41EB0E01CCF1200E03FAE4
:104460000EFE10EB0E0051F10001CCF1200E29D40C
:1044700012FA0EF201EB0451BDE8104058BF70472C
:10448000401C1CBFB2F1004F704700280CBF491CF4
:1044900020F00100704712EB020E43EB030218BF3D
:1044A0004FF0010E4EEA4202ACF1200CDCF11E0E80
:1044B00054D943FA0CFE10EB0E0051F1FF31CCF150
:1044C0001E0ED5D50EF1010E12FA0EFE404141EB43
:1044D000010101EB445C5FEA5C5C10D910EBDE701B
:1044E00001EB045138BFBEF1004FBDE8104018BFCA
:1044F000704700280CBF491C20F00100704730D2E3
:104500004FEAD42C11F5001124F400641BD0B1FA49
:1045100081F20B3AA41AA41ED2F12003914030FA82
:1045200003F31943904001EBCC71002C01EB0451D3
:10453000BDE81040A8BF704701F1C0414FF0000036
:1045400001F000417047B0FA80F310FA03F100D196
:1045500010BDE41A173C4805C90AE4E701EB045111
:1045600010BD491001EB0451BDE810404FEA300086
:1045700002E04FF0000170474A0008BF0042F8D047
:10458000B2F5001F28BF704701F000414FF0000056
:1045900070479EEA445F07D011EA5E0FBDE8104005
:1045A00004BF002100207047BDE8104070B5FFF740
:1045B000BFFE00BF40DFF63E83F00041104670476B
:1045C0000000E0FF90EA010F48BF81F0004100F1D8
:1045D0004282421A3CBF801A89184FEAD0524FF0EB
:1045E0007F4C1CEA410FA2EBD15318BF9CEA026F2B
:1045F00000F03B804FF0004C4CEA00204CEA0121D7
:1046000021FA03FC10EB0C0C1ED202F1FF325FEA20
:104610001C2040EBC25038BF70471CF07F0F4FEAA0
:10462000400C18BFBCF17F4F38BF7047C3F1200367
:10463000994008BF20F00100BCF17F4F38BF7047A0
:10464000A0F1C04000F0F1B94FEA3C00000A40EB95
:10465000C25028BF1CF0FF0F4FEA400CE6D018BF35
:10466000BCF17F4F38BF7047EAE79CEA026F05D084
:1046700010EA5C0F08BF00F00040704710B500F072
:104680008EF900BF64FBBE3E4FF47F0C1CEAD012D3
:104690001EBF1CEAD11392EA0C0F93EA0C0F00F034
:1046A000858090EA010F48BF42F4807240F4000C0C
:1046B00041F400002CF07F4120F07F4000B58142A2
:1046C000A2EB03020FF2081CACEB504EC0F100004D
:1046D0009EF800E04FEA4E0E00FB0EFC38BF49008A
:1046E0004FEA2C1C02F5FA020CFB0EF34FEACE1E29
:1046F0004FEA112C4FEAC1210EEB635E42EB2242DE
:104700000EFB0CFC4FEA1C5300FB03114FEA112C6B
:104710004FEA01310EFB0CFC4FEADC4C00FB0C11A4
:10472000C14228BF09184CEB03335DF804EB10EBD2
:10473000410143EBC250B2F57C0F38BF704729D519
:1047400012F0F00F1CBF00F1C04000F000407047B5
:10475000008182838485868788898B8C8D8E8F915A
:104760009293959697999A9C9D9FA0A2A3A5A7A87E
:10477000AAACAEB0B2B3B5B7B9BCBEC0C2C5C7C9AA
:10478000CCCED1D4D7D9DCDFE2E6E9ECF0F3F7FA0E
:10479000FE0000004FEA400C0CF1807CBCF17E4F23
:1047A00028BF7047B0F1C04000F03FB990EA010F58
:1047B0000CEAD11348BF42F48072624538BF6345AA
:1047C00007D213F47F0F16D080EA010000F00040FA
:1047D000704710B500F0E3F8097EFC3E00F005B824
:1047E00080EA010000F00040704780EA010000F01C
:1047F000004000F01AB912F47F0F04BF024870475E
:1048000080EA010000F011B90000C07F41000B0EEA
:10481000D3F19E0208D950F400034FEA032323FA90
:1048200002F048BF4042704710B500F0B8F800BF32
:1048300049922480002070476FF0004282EA2000F5
:104840007047000010F0004148BF4042B0FA80F3CA
:1048500010FA03F2C3F19D030BD051EAC35101EBEF
:104860001220530638BF704700F1010008BF20F046
:1048700001007047B0FA80F310FA03F2C3F19D0310
:104880000AD0D90501EB1220530638BF704700F15A
:10489000010008BF20F00100704700004FF47F0CBA
:1048A0001CEAD0121EBF1CEAD11392EA0C0F93EA45
:1048B0000C0F00F0478090EA010F48BF42F480726D
:1048C0004FF0004C4CEA00204CEA012102EB0302BD
:1048D000A0FB0113A2F50002002918BF43F0010359
:1048E0005B0028BF4FEA330342EB22425FEA132CFE
:1048F0004CEBC2502EBFBCEB436FB2F57C0F704740
:104900004FEA036CBCF1004F08BF20F00100B2F584
:104910007C0F38BF70470BD582F0FF0212F5803F45
:10492000C8BF704700F1C040D8BF00F000407047DA
:1049300000F5000C5FEA4C0C48BF7047B0F1C04076
:1049400000F073B890EA010F0CEAD11348BF42F4AB
:104950008072624538BF634504D280EA010000F0EE
:104960000040704710B500F01AF800BF8900013E02
:1049700000F007B800F009B85FEA410C5FEA1C6C70
:1049800008D080EA010000F050B85FEA400C5FEA0E
:104990001C6CF6D14FF00040A0F5800070470EF17E
:1049A000020E2EF0030E5EF8044B244204D44FEAAC
:1049B0004102B2F17F4F11D84FEA4003B3F17F4F6C
:1049C0000CD80ED14FEAD07CB2F17F4F0CEB4C0CDF
:1049D0000CF1020C08BF4CEBD17C04E04FF0080C4A
:1049E00001E04FEAD17C0CEB4C0324FA03F404F011
:1049F0000704B4F1040C06D20EEB840CBDE81040A1
:104A00004CF0010C6047DFE80CF0070802024FF0A1
:104A10000040A0F5800010BD0846420018BFD2F14A
:104A2000807288BF00F0004010BDFF2141EAD050E5
:104A3000C005704780F0004090EA010F7FF5C9ADD6
:104A400081F0004100F007B890EA010F48BF81F003
:104A500000413FF5BEAD421A04D882F00042A0EBFF
:104A6000020011444FEAD0524FF07F4C1CEA410F34
:104A7000A2EBD15318BF9CEA026F4AD04FF0004C12
:104A80004CEA00204CEA012121FA03FCB0EB0C0CAB
:104A90000FD412F0FE0F36D05FEA4C001DD5001285
:104AA00040EBC25038BF70471CF03F0F18BF704733
:104AB0000BE0A2F101025FEA1C2040EBC25038BFBC
:104AC00070471CF07F0F18BF7047C3F12003994057
:104AD00014BF401E20F00100704780084FEA1223E7
:104AE00008BF7047B0FA80FCA2EB0C02CCF1280C96
:104AF00060FA0CF093EA122F04BF00EBC25070472B
:104B00004FEAC3707047130A5FEADC1008BF7047B2
:104B1000F6E79CEA026F04D010EA5C0F08BF0020A1
:104B2000704710B5FFF73BFF40DFF63E81F00040D5
:104B300070470CF00F03092B08BF082000F05980C4
:104B40000A2B0BD0082B18BF704708BF1CF0400F72
:104B50000AD04FF000004FF0000170471CF0400FEA
:104B600018BF4FF0004070471CF0100F08D020F025
:104B7000704300F07F4242EAD3014FEA437070472E
:104B800000F0604021F07F4242EA000201F07F40E5
:104B900040EA727070474FF0FF0C4CF4E06C1CEA76
:104BA00011531CBF9CEA030C9445C2BFDA4201EBCF
:104BB00002517047002B0DD0BCF1000F0FD0002A1E
:104BC00001F00041A4BF41F0E04141F07F614FF0AE
:104BD0000000704701F000414FF00000704750EABC
:104BE00001334FF09B0C18BF4CF0806C7FF43CA954
:104BF00070471CF4801F11D01CF4E02F03D06FEA23
:104C0000CC31490070474FF04050EFF3008222F062
:104C1000704242EA000282F3008870474FF00000C1
:104C20007047010202030405060708090A0B0C0D70
:104C30000E0F10100000000000000000010203042D
:104C4000060708090000000000004054FB21F93F5E
:104C50003163621A61B4D03D0000601A61B4D03D86
:104C60007370032E8A19A33B0000002E8A19A33B00
:104C7000C14920259A837B39000000000000000014
:104C80006E83F9A22915444ED15727FCC0DD34F5B7
:104C9000999562DB4190433CAB6351FE61C5BBDE3D
:104CA0003A6E24B7E0D24D42EA2E49061C92D10951
:104CB0001CEB1DFE3EA729B1F53582E88444BB2ECE
:104CC00026709CE9417E5FB439D69139F43953831B
:104CD0008B5F849C3B28F9BDFF97F81F0F9805DE7A
:104CE0008B112FEF1F6D0A5ACF7E366DB709CB2778
:104CF000663F464F2DEA5F9EC7BA27757BF1E5EB0D
:104D0000F739073DEA92528AB15FFB6B085D8D1F50
:104D10007AFE10111111C13F37D60684F464963F14
:104D2000280356C9226D6D3F0165F2F2D844433F16
:104D3000A69237A0887E143F735360DBCB75F3BE19
:104D4000FE41B31BBAA1AB3F93846EE9E326823FD9
:104D50001583E0FEC8DB573F68108D1AF726303FF9
:104D6000E9A7F0320FB8123FD47ABF74702AFB3E25
:104D7000904D0008000000205C00000028010008A1
:104D8000EC4D00085C0000200446000044010008CF
:104D900000000000000003DDFF00FF00FFC000FF77
:104DA0000000000000FFFFFF000000000000000006
:104DB00000000000000000000000000000000000F3
:104DC00000000000000000000000000000000000E3
:104DD00000000000000000000000000001000000D2
:0C4DE00010000000000000000024F4009F
:04000005080000ED02
:00000001FF
